{
  "_format": "hh-sol-artifact-1",
  "contractName": "ZombieFactory",
  "sourceName": "contracts/ZombieFactory.sol",
  "abi": [
    {
      "anonymous": false,
      "inputs": [
        {
          "indexed": false,
          "internalType": "uint256",
          "name": "zombieId",
          "type": "uint256"
        },
        {
          "indexed": false,
          "internalType": "string",
          "name": "name",
          "type": "string"
        },
        {
          "indexed": false,
          "internalType": "uint256",
          "name": "dna",
          "type": "uint256"
        }
      ],
      "name": "NewZombie",
      "type": "event"
    },
    {
      "anonymous": false,
      "inputs": [
        {
          "indexed": true,
          "internalType": "address",
          "name": "previousOwner",
          "type": "address"
        },
        {
          "indexed": true,
          "internalType": "address",
          "name": "newOwner",
          "type": "address"
        }
      ],
      "name": "OwnershipTransferred",
      "type": "event"
    },
    {
      "inputs": [
        {
          "internalType": "string",
          "name": "_name",
          "type": "string"
        }
      ],
      "name": "createRandomZombie",
      "outputs": [],
      "stateMutability": "nonpayable",
      "type": "function"
    },
    {
      "inputs": [],
      "name": "owner",
      "outputs": [
        {
          "internalType": "address",
          "name": "",
          "type": "address"
        }
      ],
      "stateMutability": "view",
      "type": "function"
    },
    {
      "inputs": [],
      "name": "renounceOwnership",
      "outputs": [],
      "stateMutability": "nonpayable",
      "type": "function"
    },
    {
      "inputs": [
        {
          "internalType": "address",
          "name": "newOwner",
          "type": "address"
        }
      ],
      "name": "transferOwnership",
      "outputs": [],
      "stateMutability": "nonpayable",
      "type": "function"
    },
    {
      "inputs": [
        {
          "internalType": "uint256",
          "name": "",
          "type": "uint256"
        }
      ],
      "name": "zombieToOwner",
      "outputs": [
        {
          "internalType": "address",
          "name": "",
          "type": "address"
        }
      ],
      "stateMutability": "view",
      "type": "function"
    },
    {
      "inputs": [
        {
          "internalType": "uint256",
          "name": "",
          "type": "uint256"
        }
      ],
      "name": "zombies",
      "outputs": [
        {
          "internalType": "string",
          "name": "name",
          "type": "string"
        },
        {
          "internalType": "uint256",
          "name": "dna",
          "type": "uint256"
        },
        {
          "internalType": "uint32",
          "name": "level",
          "type": "uint32"
        },
        {
          "internalType": "uint32",
          "name": "readyTime",
          "type": "uint32"
        },
        {
          "internalType": "uint16",
          "name": "winCount",
          "type": "uint16"
        },
        {
          "internalType": "uint16",
          "name": "lossCount",
          "type": "uint16"
        }
      ],
      "stateMutability": "view",
      "type": "function"
    }
  ],
  "bytecode": "0x60806040526010600155600154600a6200001a91906200017f565b600255620151806003553480156200003157600080fd5b5062000052620000466200005860201b60201c565b6200006060201b60201c565b62000302565b600033905090565b60008060009054906101000a900473ffffffffffffffffffffffffffffffffffffffff169050816000806101000a81548173ffffffffffffffffffffffffffffffffffffffff021916908373ffffffffffffffffffffffffffffffffffffffff1602179055508173ffffffffffffffffffffffffffffffffffffffff168173ffffffffffffffffffffffffffffffffffffffff167f8be0079c531659141344cd1fd0a4f28419497f9722a3daafe3b4186f6b6457e060405160405180910390a35050565b6000808291508390505b600185111562000176578086048111156200014e576200014d620002c6565b5b60018516156200015e5780820291505b80810290506200016e85620002f5565b94506200012e565b94509492505050565b60006200018c82620002bc565b91506200019983620002bc565b9250620001c87fffffffffffffffffffffffffffffffffffffffffffffffffffffffffffffffff8484620001d0565b905092915050565b600082620001e25760019050620002b5565b81620001f25760009050620002b5565b81600181146200020b576002811462000216576200024c565b6001915050620002b5565b60ff8411156200022b576200022a620002c6565b5b8360020a915084821115620002455762000244620002c6565b5b50620002b5565b5060208310610133831016604e8410600b8410161715620002865782820a90508381111562000280576200027f620002c6565b5b620002b5565b62000295848484600162000124565b92509050818404811115620002af57620002ae620002c6565b5b81810290505b9392505050565b6000819050919050565b7f4e487b7100000000000000000000000000000000000000000000000000000000600052601160045260246000fd5b60008160011c9050919050565b610f8680620003126000396000f3fe608060405234801561001057600080fd5b50600436106100625760003560e01c80632052465e14610067578063528b7b8f1461009c578063715018a6146100cc5780637bff0a01146100d65780638da5cb5b146100f2578063f2fde38b14610110575b600080fd5b610081600480360381019061007c91906109f0565b61012c565b60405161009396959493929190610b2d565b60405180910390f35b6100b660048036038101906100b191906109f0565b61023c565b6040516100c39190610b12565b60405180910390f35b6100d461026f565b005b6100f060048036038101906100eb91906109ab565b6102f7565b005b6100fa6103be565b6040516101079190610b12565b60405180910390f35b61012a60048036038101906101259190610982565b6103e7565b005b6004818154811061013c57600080fd5b906000526020600020906003020160009150905080600001805461015f90610d60565b80601f016020809104026020016040519081016040528092919081815260200182805461018b90610d60565b80156101d85780601f106101ad576101008083540402835291602001916101d8565b820191906000526020600020905b8154815290600101906020018083116101bb57829003601f168201915b5050505050908060010154908060020160009054906101000a900463ffffffff16908060020160049054906101000a900463ffffffff16908060020160089054906101000a900461ffff169080600201600a9054906101000a900461ffff16905086565b60056020528060005260406000206000915054906101000a900473ffffffffffffffffffffffffffffffffffffffff1681565b6102776104df565b73ffffffffffffffffffffffffffffffffffffffff166102956103be565b73ffffffffffffffffffffffffffffffffffffffff16146102eb576040517f08c379a00000000000000000000000000000000000000000000000000000000081526004016102e290610bb5565b60405180910390fd5b6102f560006104e7565b565b6000600660003373ffffffffffffffffffffffffffffffffffffffff1673ffffffffffffffffffffffffffffffffffffffff168152602001908152602001600020541461034357600080fd5b600061034f83836105ab565b905060648161035e9190610ddb565b816103699190610c90565b90506103b983838080601f016020809104026020016040519081016040528093929190818152602001838380828437600081840152601f19601f82011690508083019250505050505050826105f3565b505050565b60008060009054906101000a900473ffffffffffffffffffffffffffffffffffffffff16905090565b6103ef6104df565b73ffffffffffffffffffffffffffffffffffffffff1661040d6103be565b73ffffffffffffffffffffffffffffffffffffffff1614610463576040517f08c379a000000000000000000000000000000000000000000000000000000000815260040161045a90610bb5565b60405180910390fd5b600073ffffffffffffffffffffffffffffffffffffffff168173ffffffffffffffffffffffffffffffffffffffff1614156104d3576040517f08c379a00000000000000000000000000000000000000000000000000000000081526004016104ca90610b95565b60405180910390fd5b6104dc816104e7565b50565b600033905090565b60008060009054906101000a900473ffffffffffffffffffffffffffffffffffffffff169050816000806101000a81548173ffffffffffffffffffffffffffffffffffffffff021916908373ffffffffffffffffffffffffffffffffffffffff1602179055508173ffffffffffffffffffffffffffffffffffffffff168173ffffffffffffffffffffffffffffffffffffffff167f8be0079c531659141344cd1fd0a4f28419497f9722a3daafe3b4186f6b6457e060405160405180910390a35050565b60008083836040516020016105c1929190610af9565b6040516020818303038152906040528051906020012060001c9050600254816105ea9190610ddb565b91505092915050565b60046040518060c00160405280848152602001838152602001600163ffffffff168152602001600354426106279190610c3a565b63ffffffff168152602001600061ffff168152602001600061ffff168152509080600181540180825580915050600190039060005260206000209060030201600090919091909150600082015181600001908051906020019061068b92919061086b565b506020820151816001015560408201518160020160006101000a81548163ffffffff021916908363ffffffff16021790555060608201518160020160046101000a81548163ffffffff021916908363ffffffff16021790555060808201518160020160086101000a81548161ffff021916908361ffff16021790555060a082015181600201600a6101000a81548161ffff021916908361ffff1602179055505050600060016004805490506107409190610c90565b9050336005600083815260200190815260200160002060006101000a81548173ffffffffffffffffffffffffffffffffffffffff021916908373ffffffffffffffffffffffffffffffffffffffff160217905550600660003373ffffffffffffffffffffffffffffffffffffffff1673ffffffffffffffffffffffffffffffffffffffff16815260200190815260200160002060008154809291906107e490610d92565b91905055600660003373ffffffffffffffffffffffffffffffffffffffff1673ffffffffffffffffffffffffffffffffffffffff168152602001908152602001600020819055507f88f026aacbbecc90c18411df4b1185fd8d9be2470f1962f192bf84a27d0704b781848460405161085e93929190610bd5565b60405180910390a1505050565b82805461087790610d60565b90600052602060002090601f01602090048101928261089957600085556108e0565b82601f106108b257805160ff19168380011785556108e0565b828001600101855582156108e0579182015b828111156108df5782518255916020019190600101906108c4565b5b5090506108ed91906108f1565b5090565b5b8082111561090a5760008160009055506001016108f2565b5090565b60008135905061091d81610f22565b92915050565b60008083601f84011261093557600080fd5b8235905067ffffffffffffffff81111561094e57600080fd5b60208301915083600182028301111561096657600080fd5b9250929050565b60008135905061097c81610f39565b92915050565b60006020828403121561099457600080fd5b60006109a28482850161090e565b91505092915050565b600080602083850312156109be57600080fd5b600083013567ffffffffffffffff8111156109d857600080fd5b6109e485828601610923565b92509250509250929050565b600060208284031215610a0257600080fd5b6000610a108482850161096d565b91505092915050565b610a2281610cc4565b82525050565b6000610a348385610c2f565b9350610a41838584610d1e565b82840190509392505050565b6000610a5882610c13565b610a628185610c1e565b9350610a72818560208601610d2d565b610a7b81610e99565b840191505092915050565b6000610a93602683610c1e565b9150610a9e82610eaa565b604082019050919050565b6000610ab6602083610c1e565b9150610ac182610ef9565b602082019050919050565b610ad581610cd6565b82525050565b610ae481610d04565b82525050565b610af381610d0e565b82525050565b6000610b06828486610a28565b91508190509392505050565b6000602082019050610b276000830184610a19565b92915050565b600060c0820190508181036000830152610b478189610a4d565b9050610b566020830188610adb565b610b636040830187610aea565b610b706060830186610aea565b610b7d6080830185610acc565b610b8a60a0830184610acc565b979650505050505050565b60006020820190508181036000830152610bae81610a86565b9050919050565b60006020820190508181036000830152610bce81610aa9565b9050919050565b6000606082019050610bea6000830186610adb565b8181036020830152610bfc8185610a4d565b9050610c0b6040830184610adb565b949350505050565b600081519050919050565b600082825260208201905092915050565b600081905092915050565b6000610c4582610d04565b9150610c5083610d04565b9250827fffffffffffffffffffffffffffffffffffffffffffffffffffffffffffffffff03821115610c8557610c84610e0c565b5b828201905092915050565b6000610c9b82610d04565b9150610ca683610d04565b925082821015610cb957610cb8610e0c565b5b828203905092915050565b6000610ccf82610ce4565b9050919050565b600061ffff82169050919050565b600073ffffffffffffffffffffffffffffffffffffffff82169050919050565b6000819050919050565b600063ffffffff82169050919050565b82818337600083830152505050565b60005b83811015610d4b578082015181840152602081019050610d30565b83811115610d5a576000848401525b50505050565b60006002820490506001821680610d7857607f821691505b60208210811415610d8c57610d8b610e6a565b5b50919050565b6000610d9d82610d04565b91507fffffffffffffffffffffffffffffffffffffffffffffffffffffffffffffffff821415610dd057610dcf610e0c565b5b600182019050919050565b6000610de682610d04565b9150610df183610d04565b925082610e0157610e00610e3b565b5b828206905092915050565b7f4e487b7100000000000000000000000000000000000000000000000000000000600052601160045260246000fd5b7f4e487b7100000000000000000000000000000000000000000000000000000000600052601260045260246000fd5b7f4e487b7100000000000000000000000000000000000000000000000000000000600052602260045260246000fd5b6000601f19601f8301169050919050565b7f4f776e61626c653a206e6577206f776e657220697320746865207a65726f206160008201527f6464726573730000000000000000000000000000000000000000000000000000602082015250565b7f4f776e61626c653a2063616c6c6572206973206e6f7420746865206f776e6572600082015250565b610f2b81610cc4565b8114610f3657600080fd5b50565b610f4281610d04565b8114610f4d57600080fd5b5056fea2646970667358221220d926b82cfdfae9ceaa5b13eba2ff52dc2456b219edcbaab8981a484405dc4d2764736f6c63430008040033",
  "linkReferences": {},
  "deployedLinkReferences": {}
}